:020000040000FA
:08000000803102288731EC2F4A
:100D68001630210097000800FE0012001E00FE0B3E
:100D7800B92E00347830210099009801220096019C
:100D88000800F00070080F39203E8600870101082E
:100D980008003430F000F230890BD02EF00BD02E42
:100DA800080021000D118D1222000D158D160D1150
:100DB8008D12080021000D118D1222008D120D11C7
:100DC8008D160D1508008731122786318631BE260B
:100DD80086318631B426863108003F3406345B34C8
:100DE8004F3466346D347D3407347F346F34FF34C8
:100DF800FF34FF34FF34F2007003031D042F052F66
:100E08000C2F720807390838F1007108FC00112FFF
:100E180072080739F1007108FC00080022008C01F3
:100E28008D01FB3021008C00FF308D00DA3023006B
:100E38008D001B308C0024008D018C01210095173A
:100E480022009D019E010800F9008631D5268731D0
:100E580040308731622787318631DE2687318631F7
:100E6800D526873177080339C03E87316227873115
:100E7800FA014C2F7A087907F8007808860087016C
:100E880001088731622787310130F8007808FA07AE
:100E980076087A02031C512F522F3E2F8631DE2608
:100EA80087318631D52687317C080F39803E8731D6
:100EB800622787318631DE2687310800F200720802
:100EC800F1007108F40021008D12F50122008D1245
:100ED800741C6F2F702F722F0D15732F0D118D1617
:100EE8007436F1007108F4000130F1007108F5075B
:100EF80008307502031C812F822F6A2F8D120D1561
:100F08008D1621000D158631CD2687310030200041
:100F18000D190130F3007308031D932F942F982F98
:100F280021000D1122000D118631CD2687312100B7
:100F38000D118631CD26873108008631E7268731A5
:100F480022000C1520002D08B5002C08B4002B0831
:100F5800B3002A08B2000030B1000030B000003001
:100F6800AF000030AE0001308631C5268731FB0066
:100F78007B082000B20002308631C5268731FB008D
:100F88007B082000B30003308631C5268731FB007B
:100F98007B082000B40004308631C5268731FB0069
:100FA8007B082000B500F001F00A0F308631FF26DB
:100FB80087310430FB007B08F600F70132308731B7
:100FC800282787318631CD268731E92F80310228BD
:100FD800F13084008630850020308600003087009C
:100FE8000E308631B8268731FC01B601B701B80149
:080FF800B90120008731A12F8F
:020000040001F9
:04000E00E43FFF3E8E
:00000001FF
