:08000000803102288731EC2F4A
:100C660022008C14080022000C15080021000C1527
:100C76000800163021009700080020000C0C890C93
:100C860001390800FD30F000700822008C050800CC
:100C9600FD30F000700821008C050800FB30F000E4
:100CA600700822008C050800FB30F0007008210057
:100CB6008C050800FE0012001E00FE0B5E2E00349E
:100CC6007030210099009801220096010800F0007A
:100CD60070080F39203E860087010108080086311A
:100CE600D826863186316326863186313C26863182
:100CF60008003F3406345B344F3466346D347D343B
:100D060007347F346F34FF34FF34FF34FF348631C9
:100D16005726863186314B268631863136268631F0
:100D260086313326863186315126863186314526EF
:100D36008631080086315726863186314B26863124
:100D460086314526863186315126863186313326CF
:100D56008631863136268631080000302000B10003
:100D66000030B0000030AF000030AE000430FB00B1
:100D76007B08F600F7012E308631EE268631080014
:100D8600F2007003031DC82EC92ED12E7208073932
:100D96000838F10071082000BC00D72E7208073908
:100DA600F10071082000BC00080022008C018D01B2
:100DB600FF3021008C00FF308D00FE3023008D00B7
:100DC6001F308C0024008D018C0121009517220014
:100DD6009D019E010800F90086318A268631403041
:100DE60087312927863186319D26863186318A26A6
:100DF600863177080339C03E873129278631FA01C3
:100E0600122F7A087907F80078088600870101080A
:100E16008731292786310130F8007808FA077608E5
:100E26007A02031C172F182F042F86319D26863130
:100E360086318A26863120003C080F39803E87316C
:100E46002927863186319D2686310800F2007208F0
:100E5600F1007108F40086314B268731F5018631A1
:100E660045268731741C382F392F3D2F863136267B
:100E76008731402F86315126873186313326873197
:100E86007436F1007108F4000130F1007108F507BD
:100E960008307502031C502F512F322F86314526FC
:100EA600873186313626873186313326873186313A
:100EB60039268731863140268731F1007108F300E3
:100EC6007308031D672F682F6E2F863157268731CB
:100ED600863151268731863157268731080086317B
:100EE6007226873123008C0121008C0122008C019F
:100EF60020002D08B6002C08B5002B08B4002A08DF
:100F0600B3008631B0268731013086316A268731B3
:100F1600FC007C082000B300093086316A26873140
:100F2600FC007C082000B400083086316A26873130
:100F3600FC007C082000B500043086316A26873123
:100F4600FC007C082000B600F001F00A0F30863164
:100F5600C32687310430FC007C08F600F7013330E5
:100F66008631EE2687312000B201B70137083207F5
:100F760086316A268731FC0020003708333E86001A
:100F860087017C0881000130FC007C08B70704302B
:100F96003702031CCF2FD02FB92F0430FC007C085A
:100FA600F600F70133308631EE2687310B30FD002F
:100FB6002630FC005E30890BDE2FFC0BDE2FFD0B8E
:100FC600DE2F0130FC007C082000B207B82F8031EC
:100FD60002287C3084008630850020308600003070
:100FE60087000E3086315D268731B801B901BA0116
:0A0FF600BB01BC0120008731722FFF
:020000040001F9
:04000E00E43FFF1EAE
:00000001FF
