:020000040000FA
:08000000803102288731EC2F4A
:100CF80008001630210097000800FE0012001E00B0
:100D0800FE0B822E003478302100990098012200D1
:100D180096010800F00070080F39203E8600870110
:100D28000108080021008C110C1022008C150C14ED
:100D38008C110C10080021008C110C1022000C10D2
:100D48008C110C148C1508008631E6268631863104
:100D58008726863186317D26863108003F34063461
:100D68005B344F3466346D347D3407347F346F34EC
:100D7800FF34FF34FF34FF3400302000B10000306E
:100D8800B0000030AF000030AE000430FA007A083E
:100D9800F500F6012E308631FC2686310800F20077
:100DA8007003031DD82ED92EE02E72080739083893
:100DB800F1007108FD00E52E72080739F10071088D
:100DC800FD00080022008C018D01FB3021008C0001
:100DD800FF308D00FE3023008D0012308C0024007F
:100DE8008D018C012100951722009D019E010800AC
:100DF800F80086319626863140308731362786318D
:100E080086319F26863186319626863176080339C3
:100E1800C03E873136278631F901202F79087807B7
:100E2800F700770886008701010887313627863161
:100E38000130F7007708F90775087902031C252F98
:100E4800262F122F86319F268631863196268631A7
:100E58007D080F39803E87313627863186319F26B7
:100E680086310800F1007108F0007008F3002100D5
:100E78000C10F40122000C10731C432F442F462F32
:100E88008C15472F8C110C147336F0007008F30082
:100E98000130F0007008F40708307402031C552F65
:100EA800562F3E2F0C108C150C1421008C158631F2
:100EB8007C268731003020008C190130F20072083E
:100EC800031D672F682F6C2F21008C1122008C11B5
:100ED80086317C26873121008C1186317C2687312A
:100EE80008008631A826873122000C1520002D081D
:100EF800B6002C08B5002B08B4002A08B3008631C8
:100F0800C0268731013086318E268731FB007B0869
:100F18002000B300093086318E268731FB007B081C
:100F28002000B400083086318E268731FB007B080C
:100F38002000B500043086318E268731FB007B08FF
:100F48002000B600F001F00A0F308631D326873131
:100F58000430FB007B08F500F60133308631FC26AF
:100F680087312000B201B7013708320786318E2653
:100F78008731FB0020003708333E860087017B0855
:100F880081000130FB007B08B70704303702031CDF
:100F9800CE2FCF2FB82F0430FB007B08F500F601C9
:100FA80033308631FC2687311530FC004B30FB008E
:100FB800BE30890BDD2FFB0BDD2FFC0BDD2F003244
:100FC8000130FB007B082000B207B72F80310228D0
:100FD800B2308400863085002030860000308700DB
:100FE8000E30863181268731FD01B801B901BA0179
:080FF800BB0120008731752FB9
:020000040001F9
:04000E00E43FFF3E8E
:00000001FF
